{
  "_format": "hh-sol-artifact-1",
  "contractName": "MEIToken",
  "sourceName": "contracts/MEIToken.sol",
  "abi": [
    {
      "inputs": [
        {
          "internalType": "string",
          "name": "name",
          "type": "string"
        },
        {
          "internalType": "string",
          "name": "symbol",
          "type": "string"
        },
        {
          "internalType": "uint256",
          "name": "openTime",
          "type": "uint256"
        }
      ],
      "stateMutability": "nonpayable",
      "type": "constructor"
    },
    {
      "anonymous": false,
      "inputs": [
        {
          "indexed": true,
          "internalType": "address",
          "name": "owner",
          "type": "address"
        },
        {
          "indexed": true,
          "internalType": "address",
          "name": "spender",
          "type": "address"
        },
        {
          "indexed": false,
          "internalType": "uint256",
          "name": "value",
          "type": "uint256"
        }
      ],
      "name": "Approval",
      "type": "event"
    },
    {
      "anonymous": false,
      "inputs": [
        {
          "indexed": true,
          "internalType": "address",
          "name": "previousOwner",
          "type": "address"
        },
        {
          "indexed": true,
          "internalType": "address",
          "name": "newOwner",
          "type": "address"
        }
      ],
      "name": "OwnershipTransferred",
      "type": "event"
    },
    {
      "anonymous": false,
      "inputs": [
        {
          "indexed": false,
          "internalType": "uint256",
          "name": "amount",
          "type": "uint256"
        },
        {
          "indexed": false,
          "internalType": "uint256",
          "name": "releaseTime",
          "type": "uint256"
        }
      ],
      "name": "RequestRelease",
      "type": "event"
    },
    {
      "anonymous": false,
      "inputs": [
        {
          "indexed": true,
          "internalType": "address",
          "name": "from",
          "type": "address"
        },
        {
          "indexed": true,
          "internalType": "address",
          "name": "to",
          "type": "address"
        },
        {
          "indexed": false,
          "internalType": "uint256",
          "name": "value",
          "type": "uint256"
        }
      ],
      "name": "Transfer",
      "type": "event"
    },
    {
      "inputs": [],
      "name": "ADDITIONAL_VESTING_QUARTER",
      "outputs": [
        {
          "internalType": "uint256",
          "name": "",
          "type": "uint256"
        }
      ],
      "stateMutability": "view",
      "type": "function"
    },
    {
      "inputs": [],
      "name": "DECIMALS",
      "outputs": [
        {
          "internalType": "uint256",
          "name": "",
          "type": "uint256"
        }
      ],
      "stateMutability": "view",
      "type": "function"
    },
    {
      "inputs": [],
      "name": "INITIAL_SUPPLY",
      "outputs": [
        {
          "internalType": "uint256",
          "name": "",
          "type": "uint256"
        }
      ],
      "stateMutability": "view",
      "type": "function"
    },
    {
      "inputs": [],
      "name": "LAST_VESTING_QUARTER",
      "outputs": [
        {
          "internalType": "uint256",
          "name": "",
          "type": "uint256"
        }
      ],
      "stateMutability": "view",
      "type": "function"
    },
    {
      "inputs": [],
      "name": "ONE_QUARTER_YEAR",
      "outputs": [
        {
          "internalType": "uint256",
          "name": "",
          "type": "uint256"
        }
      ],
      "stateMutability": "view",
      "type": "function"
    },
    {
      "inputs": [],
      "name": "QUARTERLY_SUPPLY_FROM_5",
      "outputs": [
        {
          "internalType": "uint256",
          "name": "",
          "type": "uint256"
        }
      ],
      "stateMutability": "view",
      "type": "function"
    },
    {
      "inputs": [],
      "name": "TOTAL_SUPPLY_LIMIT",
      "outputs": [
        {
          "internalType": "uint256",
          "name": "",
          "type": "uint256"
        }
      ],
      "stateMutability": "view",
      "type": "function"
    },
    {
      "inputs": [],
      "name": "TOTAL_UNPLANNED_RESERVE",
      "outputs": [
        {
          "internalType": "uint256",
          "name": "",
          "type": "uint256"
        }
      ],
      "stateMutability": "view",
      "type": "function"
    },
    {
      "inputs": [],
      "name": "UNPLANNED_UNLOCK_HOLDING_DURATION",
      "outputs": [
        {
          "internalType": "uint256",
          "name": "",
          "type": "uint256"
        }
      ],
      "stateMutability": "view",
      "type": "function"
    },
    {
      "inputs": [
        {
          "internalType": "address",
          "name": "owner",
          "type": "address"
        },
        {
          "internalType": "address",
          "name": "spender",
          "type": "address"
        }
      ],
      "name": "allowance",
      "outputs": [
        {
          "internalType": "uint256",
          "name": "",
          "type": "uint256"
        }
      ],
      "stateMutability": "view",
      "type": "function"
    },
    {
      "inputs": [
        {
          "internalType": "address",
          "name": "spender",
          "type": "address"
        },
        {
          "internalType": "uint256",
          "name": "amount",
          "type": "uint256"
        }
      ],
      "name": "approve",
      "outputs": [
        {
          "internalType": "bool",
          "name": "",
          "type": "bool"
        }
      ],
      "stateMutability": "nonpayable",
      "type": "function"
    },
    {
      "inputs": [
        {
          "internalType": "address",
          "name": "account",
          "type": "address"
        }
      ],
      "name": "balanceOf",
      "outputs": [
        {
          "internalType": "uint256",
          "name": "",
          "type": "uint256"
        }
      ],
      "stateMutability": "view",
      "type": "function"
    },
    {
      "inputs": [
        {
          "internalType": "uint256",
          "name": "amount",
          "type": "uint256"
        }
      ],
      "name": "burn",
      "outputs": [],
      "stateMutability": "nonpayable",
      "type": "function"
    },
    {
      "inputs": [
        {
          "internalType": "address",
          "name": "account",
          "type": "address"
        },
        {
          "internalType": "uint256",
          "name": "amount",
          "type": "uint256"
        }
      ],
      "name": "burnFrom",
      "outputs": [],
      "stateMutability": "nonpayable",
      "type": "function"
    },
    {
      "inputs": [],
      "name": "decimals",
      "outputs": [
        {
          "internalType": "uint8",
          "name": "",
          "type": "uint8"
        }
      ],
      "stateMutability": "view",
      "type": "function"
    },
    {
      "inputs": [
        {
          "internalType": "address",
          "name": "spender",
          "type": "address"
        },
        {
          "internalType": "uint256",
          "name": "subtractedValue",
          "type": "uint256"
        }
      ],
      "name": "decreaseAllowance",
      "outputs": [
        {
          "internalType": "bool",
          "name": "",
          "type": "bool"
        }
      ],
      "stateMutability": "nonpayable",
      "type": "function"
    },
    {
      "inputs": [],
      "name": "getPendingUnplannedAmount",
      "outputs": [
        {
          "internalType": "uint256",
          "name": "",
          "type": "uint256"
        }
      ],
      "stateMutability": "view",
      "type": "function"
    },
    {
      "inputs": [
        {
          "internalType": "uint256",
          "name": "timeStamp",
          "type": "uint256"
        }
      ],
      "name": "getReleasableAmount",
      "outputs": [
        {
          "internalType": "uint256",
          "name": "",
          "type": "uint256"
        }
      ],
      "stateMutability": "view",
      "type": "function"
    },
    {
      "inputs": [],
      "name": "getTimeToReleaseUnplanned",
      "outputs": [
        {
          "internalType": "uint256",
          "name": "",
          "type": "uint256"
        }
      ],
      "stateMutability": "view",
      "type": "function"
    },
    {
      "inputs": [],
      "name": "getUnplannedReleasedAmount",
      "outputs": [
        {
          "internalType": "uint256",
          "name": "",
          "type": "uint256"
        }
      ],
      "stateMutability": "view",
      "type": "function"
    },
    {
      "inputs": [],
      "name": "getVestingReleasedAmount",
      "outputs": [
        {
          "internalType": "uint256",
          "name": "",
          "type": "uint256"
        }
      ],
      "stateMutability": "view",
      "type": "function"
    },
    {
      "inputs": [
        {
          "internalType": "address",
          "name": "spender",
          "type": "address"
        },
        {
          "internalType": "uint256",
          "name": "addedValue",
          "type": "uint256"
        }
      ],
      "name": "increaseAllowance",
      "outputs": [
        {
          "internalType": "bool",
          "name": "",
          "type": "bool"
        }
      ],
      "stateMutability": "nonpayable",
      "type": "function"
    },
    {
      "inputs": [],
      "name": "name",
      "outputs": [
        {
          "internalType": "string",
          "name": "",
          "type": "string"
        }
      ],
      "stateMutability": "view",
      "type": "function"
    },
    {
      "inputs": [],
      "name": "openingTime",
      "outputs": [
        {
          "internalType": "uint256",
          "name": "",
          "type": "uint256"
        }
      ],
      "stateMutability": "view",
      "type": "function"
    },
    {
      "inputs": [],
      "name": "owner",
      "outputs": [
        {
          "internalType": "address",
          "name": "",
          "type": "address"
        }
      ],
      "stateMutability": "view",
      "type": "function"
    },
    {
      "inputs": [],
      "name": "release",
      "outputs": [],
      "stateMutability": "nonpayable",
      "type": "function"
    },
    {
      "inputs": [],
      "name": "releaseUnplannedReserve",
      "outputs": [],
      "stateMutability": "nonpayable",
      "type": "function"
    },
    {
      "inputs": [],
      "name": "renounceOwnership",
      "outputs": [],
      "stateMutability": "nonpayable",
      "type": "function"
    },
    {
      "inputs": [],
      "name": "symbol",
      "outputs": [
        {
          "internalType": "string",
          "name": "",
          "type": "string"
        }
      ],
      "stateMutability": "view",
      "type": "function"
    },
    {
      "inputs": [],
      "name": "totalSupply",
      "outputs": [
        {
          "internalType": "uint256",
          "name": "",
          "type": "uint256"
        }
      ],
      "stateMutability": "view",
      "type": "function"
    },
    {
      "inputs": [
        {
          "internalType": "address",
          "name": "recipient",
          "type": "address"
        },
        {
          "internalType": "uint256",
          "name": "amount",
          "type": "uint256"
        }
      ],
      "name": "transfer",
      "outputs": [
        {
          "internalType": "bool",
          "name": "",
          "type": "bool"
        }
      ],
      "stateMutability": "nonpayable",
      "type": "function"
    },
    {
      "inputs": [
        {
          "internalType": "address",
          "name": "sender",
          "type": "address"
        },
        {
          "internalType": "address",
          "name": "recipient",
          "type": "address"
        },
        {
          "internalType": "uint256",
          "name": "amount",
          "type": "uint256"
        }
      ],
      "name": "transferFrom",
      "outputs": [
        {
          "internalType": "bool",
          "name": "",
          "type": "bool"
        }
      ],
      "stateMutability": "nonpayable",
      "type": "function"
    },
    {
      "inputs": [
        {
          "internalType": "address",
          "name": "newOwner",
          "type": "address"
        }
      ],
      "name": "transferOwnership",
      "outputs": [],
      "stateMutability": "nonpayable",
      "type": "function"
    },
    {
      "inputs": [
        {
          "internalType": "uint256",
          "name": "amount",
          "type": "uint256"
        }
      ],
      "name": "unlockUnplannedReserve",
      "outputs": [],
      "stateMutability": "nonpayable",
      "type": "function"
    }
  ],
  "bytecode": "0x60a06040523480156200001157600080fd5b50604051620017d0380380620017d083398101604081905262000034916200023b565b8251839083906200004d906003906020850190620000e2565b50805162000063906004906020840190620000e2565b505050620000806200007a6200008c60201b60201c565b62000090565b60805250620002fe9050565b3390565b600580546001600160a01b038381166001600160a01b0319831681179093556040519116919082907f8be0079c531659141344cd1fd0a4f28419497f9722a3daafe3b4186f6b6457e090600090a35050565b828054620000f090620002ab565b90600052602060002090601f0160209004810192826200011457600085556200015f565b82601f106200012f57805160ff19168380011785556200015f565b828001600101855582156200015f579182015b828111156200015f57825182559160200191906001019062000142565b506200016d92915062000171565b5090565b5b808211156200016d576000815560010162000172565b600082601f83011262000199578081fd5b81516001600160401b0380821115620001b657620001b6620002e8565b604051601f8301601f19908116603f01168101908282118183101715620001e157620001e1620002e8565b81604052838152602092508683858801011115620001fd578485fd5b8491505b8382101562000220578582018301518183018401529082019062000201565b838211156200023157848385830101525b9695505050505050565b60008060006060848603121562000250578283fd5b83516001600160401b038082111562000267578485fd5b620002758783880162000188565b945060208601519150808211156200028b578384fd5b506200029a8682870162000188565b925050604084015190509250925092565b600181811c90821680620002c057607f821691505b60208210811415620002e257634e487b7160e01b600052602260045260246000fd5b50919050565b634e487b7160e01b600052604160045260246000fd5b6080516114a862000328600039600081816103c401528181610463015261095301526114a86000f3fe608060405234801561001057600080fd5b50600436106102065760003560e01c806370a082311161011a578063a457c2d7116100ad578063dd62ed3e1161007c578063dd62ed3e146103ee578063eca82e1614610427578063f2fde38b1461042f578063fb0e593114610442578063fe14d3831461044c57600080fd5b8063a457c2d714610399578063a9059cbb146103ac578063b7a8807c146103bf578063cc3bde3d146103e657600080fd5b80638790e50c116100e95780638790e50c146103665780638da5cb5b1461036e57806390c6e5991461038957806395d89b411461039157600080fd5b806370a082311461031a578063715018a61461034357806379cc67901461034b57806386d1a69f1461035e57600080fd5b806323b872dd1161019d578063395093511161016c57806339509351146102cd57806342966c68146102e057806348e7dca3146102f5578063547b6c0f14610308578063628dffde1461031057600080fd5b806323b872dd146102915780632e0f2625146102a45780632ff2e9dc146102b3578063313ce567146102be57600080fd5b8063095ea7b3116101d9578063095ea7b31461025657806314d5b15a1461027957806318160ddd14610281578063198d7f921461028957600080fd5b8063025d3c831461020b578063061697761461023157806306fdde031461023957806308ea40781461024e575b600080fd5b61021e610219366004611313565b610457565b6040519081526020015b60405180910390f35b60065461021e565b61024161054a565b604051610228919061132b565b61021e600f81565b6102696102643660046112ea565b6105dc565b6040519015158152602001610228565b60095461021e565b60025461021e565b61021e6105f2565b61026961029f3660046112af565b61060b565b61021e670de0b6b3a764000081565b61021e6312897bc081565b60405160128152602001610228565b6102696102db3660046112ea565b6106ba565b6102f36102ee366004611313565b6106f6565b005b6102f3610303366004611313565b610703565b60085461021e565b61021e6278a14081565b61021e61032836600461125c565b6001600160a01b031660009081526020819052604090205490565b6102f361086a565b6102f36103593660046112ea565b6108a0565b6102f3610926565b61021e600581565b6005546040516001600160a01b039091168152602001610228565b60075461021e565b610241610a48565b6102696103a73660046112ea565b610a57565b6102696103ba3660046112ea565b610af0565b61021e7f000000000000000000000000000000000000000000000000000000000000000081565b61021e610afd565b61021e6103fc36600461127d565b6001600160a01b03918216600090815260016020908152604080832093909416825291909152205490565b6102f3610b13565b6102f361043d36600461125c565b610c36565b61021e6203f48081565b61021e6301d5353081565b6000806278a1406104887f00000000000000000000000000000000000000000000000000000000000000008561140a565b61049291906113cb565b905060006104a26001600561140a565b8210156104b457506312897bc0610535565b600f82116104f7576301d5353060056104ce8460026113b3565b6104d8919061140a565b6104e291906113eb565b6104f0906312897bc06113b3565b9050610535565b61050d670de0b6b3a7640000631312d0006113eb565b610523670de0b6b3a7640000633b9aca006113eb565b61052d919061140a565b949350505050565b600654610523670de0b6b3a7640000836113eb565b60606003805461055990611421565b80601f016020809104026020016040519081016040528092919081815260200182805461058590611421565b80156105d25780601f106105a7576101008083540402835291602001916105d2565b820191906000526020600020905b8154815290600101906020018083116105b557829003601f168201915b5050505050905090565b60006105e9338484610cce565b50600192915050565b610608670de0b6b3a7640000631312d0006113eb565b81565b6000610618848484610df2565b6001600160a01b0384166000908152600160209081526040808320338452909152902054828110156106a25760405162461bcd60e51b815260206004820152602860248201527f45524332303a207472616e7366657220616d6f756e74206578636565647320616044820152676c6c6f77616e636560c01b60648201526084015b60405180910390fd5b6106af8533858403610cce565b506001949350505050565b3360008181526001602090815260408083206001600160a01b038716845290915281205490916105e99185906106f19086906113b3565b610cce565b6107003382610fc1565b50565b6005546001600160a01b0316331461072d5760405162461bcd60e51b81526004016106999061137e565b6008544290156107925760405162461bcd60e51b815260206004820152602a60248201527f4d454920546f6b656e3a20616e6f7468657220756e6c6f636b206973207374696044820152696c6c2070656e64696e6760b01b6064820152608401610699565b6007546107ab670de0b6b3a7640000631312d0006113eb565b6107b5919061140a565b8211156108155760405162461bcd60e51b815260206004820152602860248201527f4d454920546f6b656e3a206e6f7420656e6f75676820726573657276656420746044820152676f20756e6c6f636b60c01b6064820152608401610699565b6108226203f480826113b3565b600981905560088390556040805184815260208101929092527f7ccf58c08dda162ce88ac92220a9f17a63a8780a5222e01e66d2470a4948d13f910160405180910390a15050565b6005546001600160a01b031633146108945760405162461bcd60e51b81526004016106999061137e565b61089e600061110f565b565b60006108ac83336103fc565b90508181101561090a5760405162461bcd60e51b8152602060048201526024808201527f45524332303a206275726e20616d6f756e74206578636565647320616c6c6f77604482015263616e636560e01b6064820152608401610699565b6109178333848403610cce565b6109218383610fc1565b505050565b6005546001600160a01b031633146109505760405162461bcd60e51b81526004016106999061137e565b427f00000000000000000000000000000000000000000000000000000000000000008110156109cc5760405162461bcd60e51b815260206004820152602260248201527f4d454920546f6b656e3a2076657374696e6720686173206e6f74207374617274604482015261195960f21b6064820152608401610699565b60006109d782610457565b905060008111610a295760405162461bcd60e51b815260206004820152601d60248201527f4d454920546f6b656e3a206e6f20746f6b656e207265616479207965740000006044820152606401610699565b80600654610a3791906113b3565b600655610a443382611161565b5050565b60606004805461055990611421565b3360009081526001602090815260408083206001600160a01b038616845290915281205482811015610ad95760405162461bcd60e51b815260206004820152602560248201527f45524332303a2064656372656173656420616c6c6f77616e63652062656c6f77604482015264207a65726f60d81b6064820152608401610699565b610ae63385858403610cce565b5060019392505050565b60006105e9338484610df2565b610608670de0b6b3a7640000633b9aca006113eb565b6005546001600160a01b03163314610b3d5760405162461bcd60e51b81526004016106999061137e565b6009544290811015610ba45760405162461bcd60e51b815260206004820152602a60248201527f4d454920546f6b656e3a207374696c6c20686f6c64696e6720756e706c616e6e6044820152696564207265736572766560b01b6064820152608401610699565b600060085411610c095760405162461bcd60e51b815260206004820152602a60248201527f4d454920546f6b656e3a206e6f20756e706c616e656e64207265736572766520604482015269746f2072656c6561736560b01b6064820152608401610699565b600880546000918290556007805491928392610c269084906113b3565b90915550610a4490503382611161565b6005546001600160a01b03163314610c605760405162461bcd60e51b81526004016106999061137e565b6001600160a01b038116610cc55760405162461bcd60e51b815260206004820152602660248201527f4f776e61626c653a206e6577206f776e657220697320746865207a65726f206160448201526564647265737360d01b6064820152608401610699565b6107008161110f565b6001600160a01b038316610d305760405162461bcd60e51b8152602060048201526024808201527f45524332303a20617070726f76652066726f6d20746865207a65726f206164646044820152637265737360e01b6064820152608401610699565b6001600160a01b038216610d915760405162461bcd60e51b815260206004820152602260248201527f45524332303a20617070726f766520746f20746865207a65726f206164647265604482015261737360f01b6064820152608401610699565b6001600160a01b0383811660008181526001602090815260408083209487168084529482529182902085905590518481527f8c5be1e5ebec7d5bd14f71427d1e84f3dd0314c0f7b2291e5b200ac8c7c3b925910160405180910390a3505050565b6001600160a01b038316610e565760405162461bcd60e51b815260206004820152602560248201527f45524332303a207472616e736665722066726f6d20746865207a65726f206164604482015264647265737360d81b6064820152608401610699565b6001600160a01b038216610eb85760405162461bcd60e51b815260206004820152602360248201527f45524332303a207472616e7366657220746f20746865207a65726f206164647260448201526265737360e81b6064820152608401610699565b6001600160a01b03831660009081526020819052604090205481811015610f305760405162461bcd60e51b815260206004820152602660248201527f45524332303a207472616e7366657220616d6f756e7420657863656564732062604482015265616c616e636560d01b6064820152608401610699565b6001600160a01b03808516600090815260208190526040808220858503905591851681529081208054849290610f679084906113b3565b92505081905550826001600160a01b0316846001600160a01b03167fddf252ad1be2c89b69c2b068fc378daa952ba7f163c4a11628f55a4df523b3ef84604051610fb391815260200190565b60405180910390a350505050565b6001600160a01b0382166110215760405162461bcd60e51b815260206004820152602160248201527f45524332303a206275726e2066726f6d20746865207a65726f206164647265736044820152607360f81b6064820152608401610699565b6001600160a01b038216600090815260208190526040902054818110156110955760405162461bcd60e51b815260206004820152602260248201527f45524332303a206275726e20616d6f756e7420657863656564732062616c616e604482015261636560f01b6064820152608401610699565b6001600160a01b03831660009081526020819052604081208383039055600280548492906110c490849061140a565b90915550506040518281526000906001600160a01b038516907fddf252ad1be2c89b69c2b068fc378daa952ba7f163c4a11628f55a4df523b3ef9060200160405180910390a3505050565b600580546001600160a01b038381166001600160a01b0319831681179093556040519116919082907f8be0079c531659141344cd1fd0a4f28419497f9722a3daafe3b4186f6b6457e090600090a35050565b6001600160a01b0382166111b75760405162461bcd60e51b815260206004820152601f60248201527f45524332303a206d696e7420746f20746865207a65726f2061646472657373006044820152606401610699565b80600260008282546111c991906113b3565b90915550506001600160a01b038216600090815260208190526040812080548392906111f69084906113b3565b90915550506040518181526001600160a01b038316906000907fddf252ad1be2c89b69c2b068fc378daa952ba7f163c4a11628f55a4df523b3ef9060200160405180910390a35050565b80356001600160a01b038116811461125757600080fd5b919050565b60006020828403121561126d578081fd5b61127682611240565b9392505050565b6000806040838503121561128f578081fd5b61129883611240565b91506112a660208401611240565b90509250929050565b6000806000606084860312156112c3578081fd5b6112cc84611240565b92506112da60208501611240565b9150604084013590509250925092565b600080604083850312156112fc578182fd5b61130583611240565b946020939093013593505050565b600060208284031215611324578081fd5b5035919050565b6000602080835283518082850152825b818110156113575785810183015185820160400152820161133b565b818111156113685783604083870101525b50601f01601f1916929092016040019392505050565b6020808252818101527f4f776e61626c653a2063616c6c6572206973206e6f7420746865206f776e6572604082015260600190565b600082198211156113c6576113c661145c565b500190565b6000826113e657634e487b7160e01b81526012600452602481fd5b500490565b60008160001904831182151516156114055761140561145c565b500290565b60008282101561141c5761141c61145c565b500390565b600181811c9082168061143557607f821691505b6020821081141561145657634e487b7160e01b600052602260045260246000fd5b50919050565b634e487b7160e01b600052601160045260246000fdfea2646970667358221220ec87f1db42f409edc1facacd3ed92c85f5f95834c397b3898ba729381d4eb4d564736f6c63430008040033",
  "linkReferences": {},
  "deployedLinkReferences": {}
}