{
  "_format": "hh-sol-artifact-1",
  "contractName": "MEIToken",
  "sourceName": "contracts/MEIToken.sol",
  "abi": [
    {
      "inputs": [
        {
          "internalType": "string",
          "name": "name",
          "type": "string"
        },
        {
          "internalType": "string",
          "name": "symbol",
          "type": "string"
        },
        {
          "internalType": "uint256",
          "name": "openTime",
          "type": "uint256"
        }
      ],
      "stateMutability": "nonpayable",
      "type": "constructor"
    },
    {
      "anonymous": false,
      "inputs": [
        {
          "indexed": true,
          "internalType": "address",
          "name": "owner",
          "type": "address"
        },
        {
          "indexed": true,
          "internalType": "address",
          "name": "spender",
          "type": "address"
        },
        {
          "indexed": false,
          "internalType": "uint256",
          "name": "value",
          "type": "uint256"
        }
      ],
      "name": "Approval",
      "type": "event"
    },
    {
      "anonymous": false,
      "inputs": [
        {
          "indexed": true,
          "internalType": "address",
          "name": "previousOwner",
          "type": "address"
        },
        {
          "indexed": true,
          "internalType": "address",
          "name": "newOwner",
          "type": "address"
        }
      ],
      "name": "OwnershipTransferred",
      "type": "event"
    },
    {
      "anonymous": false,
      "inputs": [
        {
          "indexed": false,
          "internalType": "uint256",
          "name": "amount",
          "type": "uint256"
        },
        {
          "indexed": false,
          "internalType": "uint256",
          "name": "releaseTime",
          "type": "uint256"
        }
      ],
      "name": "RequestRelease",
      "type": "event"
    },
    {
      "anonymous": false,
      "inputs": [
        {
          "indexed": true,
          "internalType": "address",
          "name": "from",
          "type": "address"
        },
        {
          "indexed": true,
          "internalType": "address",
          "name": "to",
          "type": "address"
        },
        {
          "indexed": false,
          "internalType": "uint256",
          "name": "value",
          "type": "uint256"
        }
      ],
      "name": "Transfer",
      "type": "event"
    },
    {
      "inputs": [],
      "name": "DECIMALS",
      "outputs": [
        {
          "internalType": "uint256",
          "name": "",
          "type": "uint256"
        }
      ],
      "stateMutability": "view",
      "type": "function"
    },
    {
      "inputs": [],
      "name": "TOTAL_SUPPLY_LIMIT",
      "outputs": [
        {
          "internalType": "uint256",
          "name": "",
          "type": "uint256"
        }
      ],
      "stateMutability": "view",
      "type": "function"
    },
    {
      "inputs": [],
      "name": "TOTAL_UNPLANNED_RESERVE",
      "outputs": [
        {
          "internalType": "uint256",
          "name": "",
          "type": "uint256"
        }
      ],
      "stateMutability": "view",
      "type": "function"
    },
    {
      "inputs": [],
      "name": "UNPLANNED_UNLOCK_HOLDING_DURATION",
      "outputs": [
        {
          "internalType": "uint256",
          "name": "",
          "type": "uint256"
        }
      ],
      "stateMutability": "view",
      "type": "function"
    },
    {
      "inputs": [
        {
          "internalType": "address",
          "name": "owner",
          "type": "address"
        },
        {
          "internalType": "address",
          "name": "spender",
          "type": "address"
        }
      ],
      "name": "allowance",
      "outputs": [
        {
          "internalType": "uint256",
          "name": "",
          "type": "uint256"
        }
      ],
      "stateMutability": "view",
      "type": "function"
    },
    {
      "inputs": [
        {
          "internalType": "address",
          "name": "spender",
          "type": "address"
        },
        {
          "internalType": "uint256",
          "name": "amount",
          "type": "uint256"
        }
      ],
      "name": "approve",
      "outputs": [
        {
          "internalType": "bool",
          "name": "",
          "type": "bool"
        }
      ],
      "stateMutability": "nonpayable",
      "type": "function"
    },
    {
      "inputs": [
        {
          "internalType": "address",
          "name": "account",
          "type": "address"
        }
      ],
      "name": "balanceOf",
      "outputs": [
        {
          "internalType": "uint256",
          "name": "",
          "type": "uint256"
        }
      ],
      "stateMutability": "view",
      "type": "function"
    },
    {
      "inputs": [
        {
          "internalType": "uint256",
          "name": "amount",
          "type": "uint256"
        }
      ],
      "name": "burn",
      "outputs": [],
      "stateMutability": "nonpayable",
      "type": "function"
    },
    {
      "inputs": [
        {
          "internalType": "address",
          "name": "account",
          "type": "address"
        },
        {
          "internalType": "uint256",
          "name": "amount",
          "type": "uint256"
        }
      ],
      "name": "burnFrom",
      "outputs": [],
      "stateMutability": "nonpayable",
      "type": "function"
    },
    {
      "inputs": [],
      "name": "decimals",
      "outputs": [
        {
          "internalType": "uint8",
          "name": "",
          "type": "uint8"
        }
      ],
      "stateMutability": "view",
      "type": "function"
    },
    {
      "inputs": [
        {
          "internalType": "address",
          "name": "spender",
          "type": "address"
        },
        {
          "internalType": "uint256",
          "name": "subtractedValue",
          "type": "uint256"
        }
      ],
      "name": "decreaseAllowance",
      "outputs": [
        {
          "internalType": "bool",
          "name": "",
          "type": "bool"
        }
      ],
      "stateMutability": "nonpayable",
      "type": "function"
    },
    {
      "inputs": [],
      "name": "getPendingUnplannedAmount",
      "outputs": [
        {
          "internalType": "uint256",
          "name": "",
          "type": "uint256"
        }
      ],
      "stateMutability": "view",
      "type": "function"
    },
    {
      "inputs": [
        {
          "internalType": "uint256",
          "name": "timeStamp",
          "type": "uint256"
        }
      ],
      "name": "getReleasableAmount",
      "outputs": [
        {
          "internalType": "uint256",
          "name": "",
          "type": "uint256"
        }
      ],
      "stateMutability": "view",
      "type": "function"
    },
    {
      "inputs": [],
      "name": "getTimeToReleaseUnplanned",
      "outputs": [
        {
          "internalType": "uint256",
          "name": "",
          "type": "uint256"
        }
      ],
      "stateMutability": "view",
      "type": "function"
    },
    {
      "inputs": [],
      "name": "getUnplannedReleasedAmount",
      "outputs": [
        {
          "internalType": "uint256",
          "name": "",
          "type": "uint256"
        }
      ],
      "stateMutability": "view",
      "type": "function"
    },
    {
      "inputs": [],
      "name": "getVestingReleasedAmount",
      "outputs": [
        {
          "internalType": "uint256",
          "name": "",
          "type": "uint256"
        }
      ],
      "stateMutability": "view",
      "type": "function"
    },
    {
      "inputs": [
        {
          "internalType": "address",
          "name": "spender",
          "type": "address"
        },
        {
          "internalType": "uint256",
          "name": "addedValue",
          "type": "uint256"
        }
      ],
      "name": "increaseAllowance",
      "outputs": [
        {
          "internalType": "bool",
          "name": "",
          "type": "bool"
        }
      ],
      "stateMutability": "nonpayable",
      "type": "function"
    },
    {
      "inputs": [],
      "name": "name",
      "outputs": [
        {
          "internalType": "string",
          "name": "",
          "type": "string"
        }
      ],
      "stateMutability": "view",
      "type": "function"
    },
    {
      "inputs": [],
      "name": "openingTime",
      "outputs": [
        {
          "internalType": "uint256",
          "name": "",
          "type": "uint256"
        }
      ],
      "stateMutability": "view",
      "type": "function"
    },
    {
      "inputs": [],
      "name": "owner",
      "outputs": [
        {
          "internalType": "address",
          "name": "",
          "type": "address"
        }
      ],
      "stateMutability": "view",
      "type": "function"
    },
    {
      "inputs": [],
      "name": "release",
      "outputs": [],
      "stateMutability": "nonpayable",
      "type": "function"
    },
    {
      "inputs": [],
      "name": "releaseUnplannedReserve",
      "outputs": [],
      "stateMutability": "nonpayable",
      "type": "function"
    },
    {
      "inputs": [],
      "name": "renounceOwnership",
      "outputs": [],
      "stateMutability": "nonpayable",
      "type": "function"
    },
    {
      "inputs": [],
      "name": "symbol",
      "outputs": [
        {
          "internalType": "string",
          "name": "",
          "type": "string"
        }
      ],
      "stateMutability": "view",
      "type": "function"
    },
    {
      "inputs": [],
      "name": "totalSupply",
      "outputs": [
        {
          "internalType": "uint256",
          "name": "",
          "type": "uint256"
        }
      ],
      "stateMutability": "view",
      "type": "function"
    },
    {
      "inputs": [
        {
          "internalType": "address",
          "name": "recipient",
          "type": "address"
        },
        {
          "internalType": "uint256",
          "name": "amount",
          "type": "uint256"
        }
      ],
      "name": "transfer",
      "outputs": [
        {
          "internalType": "bool",
          "name": "",
          "type": "bool"
        }
      ],
      "stateMutability": "nonpayable",
      "type": "function"
    },
    {
      "inputs": [
        {
          "internalType": "address",
          "name": "sender",
          "type": "address"
        },
        {
          "internalType": "address",
          "name": "recipient",
          "type": "address"
        },
        {
          "internalType": "uint256",
          "name": "amount",
          "type": "uint256"
        }
      ],
      "name": "transferFrom",
      "outputs": [
        {
          "internalType": "bool",
          "name": "",
          "type": "bool"
        }
      ],
      "stateMutability": "nonpayable",
      "type": "function"
    },
    {
      "inputs": [
        {
          "internalType": "address",
          "name": "newOwner",
          "type": "address"
        }
      ],
      "name": "transferOwnership",
      "outputs": [],
      "stateMutability": "nonpayable",
      "type": "function"
    },
    {
      "inputs": [
        {
          "internalType": "uint256",
          "name": "amount",
          "type": "uint256"
        }
      ],
      "name": "unlockUnplannedReserve",
      "outputs": [],
      "stateMutability": "nonpayable",
      "type": "function"
    }
  ],
  "bytecode": "0x60a06040523480156200001157600080fd5b50604051620017533803806200175383398101604081905262000034916200023b565b8251839083906200004d906003906020850190620000e2565b50805162000063906004906020840190620000e2565b505050620000806200007a6200008c60201b60201c565b62000090565b60805250620002fe9050565b3390565b600580546001600160a01b038381166001600160a01b0319831681179093556040519116919082907f8be0079c531659141344cd1fd0a4f28419497f9722a3daafe3b4186f6b6457e090600090a35050565b828054620000f090620002ab565b90600052602060002090601f0160209004810192826200011457600085556200015f565b82601f106200012f57805160ff19168380011785556200015f565b828001600101855582156200015f579182015b828111156200015f57825182559160200191906001019062000142565b506200016d92915062000171565b5090565b5b808211156200016d576000815560010162000172565b600082601f83011262000199578081fd5b81516001600160401b0380821115620001b657620001b6620002e8565b604051601f8301601f19908116603f01168101908282118183101715620001e157620001e1620002e8565b81604052838152602092508683858801011115620001fd578485fd5b8491505b8382101562000220578582018301518183018401529082019062000201565b838211156200023157848385830101525b9695505050505050565b60008060006060848603121562000250578283fd5b83516001600160401b038082111562000267578485fd5b620002758783880162000188565b945060208601519150808211156200028b578384fd5b506200029a8682870162000188565b925050604084015190509250925092565b600181811c90821680620002c057607f821691505b60208210811415620002e257634e487b7160e01b600052602260045260246000fd5b50919050565b634e487b7160e01b600052604160045260246000fd5b60805161142b6200032860003960008181610368015281816103fc01526108d6015261142b6000f3fe608060405234801561001057600080fd5b50600436106101cf5760003560e01c806370a0823111610104578063a457c2d7116100a2578063dd62ed3e11610071578063dd62ed3e14610392578063eca82e16146103cb578063f2fde38b146103d3578063fb0e5931146103e657600080fd5b8063a457c2d71461033d578063a9059cbb14610350578063b7a8807c14610363578063cc3bde3d1461038a57600080fd5b806386d1a69f116100de57806386d1a69f1461030a5780638da5cb5b1461031257806390c6e5991461032d57806395d89b411461033557600080fd5b806370a08231146102c6578063715018a6146102ef57806379cc6790146102f757600080fd5b806323b872dd11610171578063395093511161014b578063395093511461028357806342966c681461029657806348e7dca3146102ab578063547b6c0f146102be57600080fd5b806323b872dd146102525780632e0f262514610265578063313ce5671461027457600080fd5b8063095ea7b3116101ad578063095ea7b31461021757806314d5b15a1461023a57806318160ddd14610242578063198d7f921461024a57600080fd5b8063025d3c83146101d457806306169776146101fa57806306fdde0314610202575b600080fd5b6101e76101e2366004611296565b6103f0565b6040519081526020015b60405180910390f35b6006546101e7565b61020a6104cd565b6040516101f191906112ae565b61022a61022536600461126d565b61055f565b60405190151581526020016101f1565b6009546101e7565b6002546101e7565b6101e7610575565b61022a610260366004611232565b61058e565b6101e7670de0b6b3a764000081565b604051601281526020016101f1565b61022a61029136600461126d565b61063d565b6102a96102a4366004611296565b610679565b005b6102a96102b9366004611296565b610686565b6008546101e7565b6101e76102d43660046111df565b6001600160a01b031660009081526020819052604090205490565b6102a96107ed565b6102a961030536600461126d565b610823565b6102a96108a9565b6005546040516001600160a01b0390911681526020016101f1565b6007546101e7565b61020a6109cb565b61022a61034b36600461126d565b6109da565b61022a61035e36600461126d565b610a73565b6101e77f000000000000000000000000000000000000000000000000000000000000000081565b6101e7610a80565b6101e76103a0366004611200565b6001600160a01b03918216600090815260016020908152604080832093909416825291909152205490565b6102a9610a96565b6102a96103e13660046111df565b610bb9565b6101e76203f48081565b6000806278a1406104217f00000000000000000000000000000000000000000000000000000000000000008561138d565b61042b919061134e565b90506000600482101561044357506312897bc06104b8565b601082101561047a5761045760038361138d565b610465906301d5353061136e565b610473906312897bc0611336565b90506104b8565b610490670de0b6b3a7640000631312d00061136e565b6104a6670de0b6b3a7640000633b9aca0061136e565b6104b0919061138d565b949350505050565b6006546104a6670de0b6b3a76400008361136e565b6060600380546104dc906113a4565b80601f0160208091040260200160405190810160405280929190818152602001828054610508906113a4565b80156105555780601f1061052a57610100808354040283529160200191610555565b820191906000526020600020905b81548152906001019060200180831161053857829003601f168201915b5050505050905090565b600061056c338484610c51565b50600192915050565b61058b670de0b6b3a7640000631312d00061136e565b81565b600061059b848484610d75565b6001600160a01b0384166000908152600160209081526040808320338452909152902054828110156106255760405162461bcd60e51b815260206004820152602860248201527f45524332303a207472616e7366657220616d6f756e74206578636565647320616044820152676c6c6f77616e636560c01b60648201526084015b60405180910390fd5b6106328533858403610c51565b506001949350505050565b3360008181526001602090815260408083206001600160a01b0387168452909152812054909161056c918590610674908690611336565b610c51565b6106833382610f44565b50565b6005546001600160a01b031633146106b05760405162461bcd60e51b815260040161061c90611301565b6008544290156107155760405162461bcd60e51b815260206004820152602a60248201527f4d454920546f6b656e3a20616e6f7468657220756e6c6f636b206973207374696044820152696c6c2070656e64696e6760b01b606482015260840161061c565b60075461072e670de0b6b3a7640000631312d00061136e565b610738919061138d565b8211156107985760405162461bcd60e51b815260206004820152602860248201527f4d454920546f6b656e3a206e6f7420656e6f75676820726573657276656420746044820152676f20756e6c6f636b60c01b606482015260840161061c565b6107a56203f48082611336565b600981905560088390556040805184815260208101929092527f7ccf58c08dda162ce88ac92220a9f17a63a8780a5222e01e66d2470a4948d13f910160405180910390a15050565b6005546001600160a01b031633146108175760405162461bcd60e51b815260040161061c90611301565b6108216000611092565b565b600061082f83336103a0565b90508181101561088d5760405162461bcd60e51b8152602060048201526024808201527f45524332303a206275726e20616d6f756e74206578636565647320616c6c6f77604482015263616e636560e01b606482015260840161061c565b61089a8333848403610c51565b6108a48383610f44565b505050565b6005546001600160a01b031633146108d35760405162461bcd60e51b815260040161061c90611301565b427f000000000000000000000000000000000000000000000000000000000000000081101561094f5760405162461bcd60e51b815260206004820152602260248201527f4d454920546f6b656e3a2076657374696e6720686173206e6f74207374617274604482015261195960f21b606482015260840161061c565b600061095a826103f0565b9050600081116109ac5760405162461bcd60e51b815260206004820152601d60248201527f4d454920546f6b656e3a206e6f20746f6b656e20726561647920796574000000604482015260640161061c565b806006546109ba9190611336565b6006556109c733826110e4565b5050565b6060600480546104dc906113a4565b3360009081526001602090815260408083206001600160a01b038616845290915281205482811015610a5c5760405162461bcd60e51b815260206004820152602560248201527f45524332303a2064656372656173656420616c6c6f77616e63652062656c6f77604482015264207a65726f60d81b606482015260840161061c565b610a693385858403610c51565b5060019392505050565b600061056c338484610d75565b61058b670de0b6b3a7640000633b9aca0061136e565b6005546001600160a01b03163314610ac05760405162461bcd60e51b815260040161061c90611301565b6009544290811015610b275760405162461bcd60e51b815260206004820152602a60248201527f4d454920546f6b656e3a207374696c6c20686f6c64696e6720756e706c616e6e6044820152696564207265736572766560b01b606482015260840161061c565b600060085411610b8c5760405162461bcd60e51b815260206004820152602a60248201527f4d454920546f6b656e3a206e6f20756e706c616e656e64207265736572766520604482015269746f2072656c6561736560b01b606482015260840161061c565b600880546000918290556007805491928392610ba9908490611336565b909155506109c7905033826110e4565b6005546001600160a01b03163314610be35760405162461bcd60e51b815260040161061c90611301565b6001600160a01b038116610c485760405162461bcd60e51b815260206004820152602660248201527f4f776e61626c653a206e6577206f776e657220697320746865207a65726f206160448201526564647265737360d01b606482015260840161061c565b61068381611092565b6001600160a01b038316610cb35760405162461bcd60e51b8152602060048201526024808201527f45524332303a20617070726f76652066726f6d20746865207a65726f206164646044820152637265737360e01b606482015260840161061c565b6001600160a01b038216610d145760405162461bcd60e51b815260206004820152602260248201527f45524332303a20617070726f766520746f20746865207a65726f206164647265604482015261737360f01b606482015260840161061c565b6001600160a01b0383811660008181526001602090815260408083209487168084529482529182902085905590518481527f8c5be1e5ebec7d5bd14f71427d1e84f3dd0314c0f7b2291e5b200ac8c7c3b925910160405180910390a3505050565b6001600160a01b038316610dd95760405162461bcd60e51b815260206004820152602560248201527f45524332303a207472616e736665722066726f6d20746865207a65726f206164604482015264647265737360d81b606482015260840161061c565b6001600160a01b038216610e3b5760405162461bcd60e51b815260206004820152602360248201527f45524332303a207472616e7366657220746f20746865207a65726f206164647260448201526265737360e81b606482015260840161061c565b6001600160a01b03831660009081526020819052604090205481811015610eb35760405162461bcd60e51b815260206004820152602660248201527f45524332303a207472616e7366657220616d6f756e7420657863656564732062604482015265616c616e636560d01b606482015260840161061c565b6001600160a01b03808516600090815260208190526040808220858503905591851681529081208054849290610eea908490611336565b92505081905550826001600160a01b0316846001600160a01b03167fddf252ad1be2c89b69c2b068fc378daa952ba7f163c4a11628f55a4df523b3ef84604051610f3691815260200190565b60405180910390a350505050565b6001600160a01b038216610fa45760405162461bcd60e51b815260206004820152602160248201527f45524332303a206275726e2066726f6d20746865207a65726f206164647265736044820152607360f81b606482015260840161061c565b6001600160a01b038216600090815260208190526040902054818110156110185760405162461bcd60e51b815260206004820152602260248201527f45524332303a206275726e20616d6f756e7420657863656564732062616c616e604482015261636560f01b606482015260840161061c565b6001600160a01b038316600090815260208190526040812083830390556002805484929061104790849061138d565b90915550506040518281526000906001600160a01b038516907fddf252ad1be2c89b69c2b068fc378daa952ba7f163c4a11628f55a4df523b3ef9060200160405180910390a3505050565b600580546001600160a01b038381166001600160a01b0319831681179093556040519116919082907f8be0079c531659141344cd1fd0a4f28419497f9722a3daafe3b4186f6b6457e090600090a35050565b6001600160a01b03821661113a5760405162461bcd60e51b815260206004820152601f60248201527f45524332303a206d696e7420746f20746865207a65726f206164647265737300604482015260640161061c565b806002600082825461114c9190611336565b90915550506001600160a01b03821660009081526020819052604081208054839290611179908490611336565b90915550506040518181526001600160a01b038316906000907fddf252ad1be2c89b69c2b068fc378daa952ba7f163c4a11628f55a4df523b3ef9060200160405180910390a35050565b80356001600160a01b03811681146111da57600080fd5b919050565b6000602082840312156111f0578081fd5b6111f9826111c3565b9392505050565b60008060408385031215611212578081fd5b61121b836111c3565b9150611229602084016111c3565b90509250929050565b600080600060608486031215611246578081fd5b61124f846111c3565b925061125d602085016111c3565b9150604084013590509250925092565b6000806040838503121561127f578182fd5b611288836111c3565b946020939093013593505050565b6000602082840312156112a7578081fd5b5035919050565b6000602080835283518082850152825b818110156112da578581018301518582016040015282016112be565b818111156112eb5783604083870101525b50601f01601f1916929092016040019392505050565b6020808252818101527f4f776e61626c653a2063616c6c6572206973206e6f7420746865206f776e6572604082015260600190565b60008219821115611349576113496113df565b500190565b60008261136957634e487b7160e01b81526012600452602481fd5b500490565b6000816000190483118215151615611388576113886113df565b500290565b60008282101561139f5761139f6113df565b500390565b600181811c908216806113b857607f821691505b602082108114156113d957634e487b7160e01b600052602260045260246000fd5b50919050565b634e487b7160e01b600052601160045260246000fdfea2646970667358221220ef7c19ec89c8499c490300c314c020a9306307aadcfeb27e52a8280eda919caf64736f6c63430008040033",
  "linkReferences": {},
  "deployedLinkReferences": {}
}